{
  "contractName": "Election",
  "abi": [
    {
      "constant": true,
      "inputs": [],
      "name": "candidatesCount",
      "outputs": [
        {
          "name": "",
          "type": "uint256"
        }
      ],
      "payable": false,
      "stateMutability": "view",
      "type": "function"
    },
    {
      "constant": true,
      "inputs": [
        {
          "name": "",
          "type": "uint256"
        }
      ],
      "name": "candidates",
      "outputs": [
        {
          "name": "id",
          "type": "uint256"
        },
        {
          "name": "name",
          "type": "string"
        },
        {
          "name": "voteCount",
          "type": "uint256"
        }
      ],
      "payable": false,
      "stateMutability": "view",
      "type": "function"
    },
    {
      "constant": true,
      "inputs": [
        {
          "name": "",
          "type": "address"
        }
      ],
      "name": "voters",
      "outputs": [
        {
          "name": "",
          "type": "bool"
        }
      ],
      "payable": false,
      "stateMutability": "view",
      "type": "function"
    },
    {
      "inputs": [],
      "payable": false,
      "stateMutability": "nonpayable",
      "type": "constructor"
    },
    {
      "constant": false,
      "inputs": [
        {
          "name": "_candidateId",
          "type": "uint256"
        }
      ],
      "name": "voting",
      "outputs": [],
      "payable": false,
      "stateMutability": "nonpayable",
      "type": "function"
    }
  ],
  "bytecode": "0x608060405234801561001057600080fd5b5061005e6040805190810160405280600b81526020017f43616e64696461746520310000000000000000000000000000000000000000008152506100fd640100000000026401000000009004565b6100ab6040805190810160405280600b81526020017f43616e64696461746520320000000000000000000000000000000000000000008152506100fd640100000000026401000000009004565b6100f86040805190810160405280600b81526020017f43616e64696461746520330000000000000000000000000000000000000000008152506100fd640100000000026401000000009004565b61021e565b600260008154809291906001019190505550606060405190810160405280600254815260200182815260200160008152506000806002548152602001908152602001600020600082015181600001556020820151816001019080519060200190610168929190610179565b506040820151816002015590505050565b828054600181600116156101000203166002900490600052602060002090601f016020900481019282601f106101ba57805160ff19168380011785556101e8565b828001600101855582156101e8579182015b828111156101e75782518255916020019190600101906101cc565b5b5090506101f591906101f9565b5090565b61021b91905b808211156102175760008160009055506001016101ff565b5090565b90565b6103d78061022d6000396000f300608060405260043610610062576000357c0100000000000000000000000000000000000000000000000000000000900463ffffffff1680632d35a8a2146100675780633477ee2e14610092578063a3ec138d14610146578063fd4a77f1146101a1575b600080fd5b34801561007357600080fd5b5061007c6101ce565b6040518082815260200191505060405180910390f35b34801561009e57600080fd5b506100bd600480360381019080803590602001909291905050506101d4565b6040518084815260200180602001838152602001828103825284818151815260200191508051906020019080838360005b838110156101095780820151818401526020810190506100ee565b50505050905090810190601f1680156101365780820380516001836020036101000a031916815260200191505b5094505050505060405180910390f35b34801561015257600080fd5b50610187600480360381019080803573ffffffffffffffffffffffffffffffffffffffff169060200190929190505050610296565b604051808215151515815260200191505060405180910390f35b3480156101ad57600080fd5b506101cc600480360381019080803590602001909291905050506102b6565b005b60025481565b6000602052806000526040600020600091509050806000015490806001018054600181600116156101000203166002900480601f0160208091040260200160405190810160405280929190818152602001828054600181600116156101000203166002900480156102865780601f1061025b57610100808354040283529160200191610286565b820191906000526020600020905b81548152906001019060200180831161026957829003601f168201915b5050505050908060020154905083565b60016020528060005260406000206000915054906101000a900460ff1681565b6000811180156102c857506002548111155b15156102d357600080fd5b600160003373ffffffffffffffffffffffffffffffffffffffff1673ffffffffffffffffffffffffffffffffffffffff16815260200190815260200160002060009054906101000a900460ff1615151561032c57600080fd5b60018060003373ffffffffffffffffffffffffffffffffffffffff1673ffffffffffffffffffffffffffffffffffffffff16815260200190815260200160002060006101000a81548160ff02191690831515021790555060008082815260200190815260200160002060020160008154809291906001019190505550505600a165627a7a7230582061e4585c6396f948932fe15e7263466fd1503c1d564f0e8633158db3d567bbab0029",
  "source": "pragma solidity ^0.4.11;\n\ncontract Election {\n\n\t// Model A candidate\n\tstruct Candidate {\n\t\tuint id;\n\t\tstring name;\n\t\tuint voteCount;\n\t}\n\t// Store the candidate that we Model\n\t\t// mapping is like a Hash or Associative Array\n\t// key is the candiate ID, returns Candidate structure type\n\t// When we add a candidate to the mapping we write to the Blockchain\n\t// we change the state of the contract \n\tmapping(uint => Candidate) public candidates;\n\t// Fetch the candidate from Storage\n\n    // Store People (Addresses) that has voted for a candidate (uint)\n    // If nothing in it, bool value defaults to false\n    mapping(address => bool) public voters;\n\n\t// Store How many candidates (like a counter 'cache')\n\t// We increment it when we add a Candidate, \n\t// we can use inside of a loop over all candidates\n\tuint public candidatesCount;\n\n\tconstructor() public {\n\t\t// Add a Candidate when contract is migrated and deployed \n\t\taddCandidate(\"Candidate 1\");\n\t\taddCandidate(\"Candidate 2\");\n\t\taddCandidate(\"Candidate 3\");\n\t}\n\n\tfunction addCandidate(string _name) private {\n\t\tcandidatesCount++; // Represent ID of the created candidate\n\t\t                              // Instantiate a Candidate\n\t\tcandidates[candidatesCount] = Candidate(candidatesCount,_name,0);\n\t}\n\n\t// An external account should/can call this function\n\tfunction voting(uint _candidateId) public {\n\n\t\t// require evaluates to true or false, if false exits the function with false\n\n\t\t// require a valid candidate ( 1.. Total Candidates)\n\t\trequire(_candidateId > 0 && _candidateId <= candidatesCount);\n\n        // require that a voter hasn't voted before\n\t\trequire(!voters[msg.sender]); \n\n\t\t// record that a voter has voted\n\t\t\tvoters[msg.sender]=true;\n\t\t// update candidate vote count\n\t\t\tcandidates[_candidateId].voteCount++;\n\n\t}\n}\n\n\n\n\n",
  "sourcePath": "/Users/pedrodanielsanchez/courses/dappernetwork/election/contracts/Election.sol",
  "compiler": {
    "name": "solc",
    "version": "0.4.24+commit.e67f0147.Emscripten.clang"
  },
  "schemaVersion": "2.0.0",
  "updatedAt": "2018-06-07T04:54:39.614Z"
}